{
  "contractName": "ManufacturerRole",
  "abi": [
    {
      "inputs": [],
      "payable": false,
      "stateMutability": "nonpayable",
      "type": "constructor"
    },
    {
      "anonymous": false,
      "inputs": [
        {
          "indexed": false,
          "name": "manufacturer",
          "type": "address"
        }
      ],
      "name": "ManufacturerAdded",
      "type": "event"
    },
    {
      "anonymous": false,
      "inputs": [
        {
          "indexed": false,
          "name": "manufacturer",
          "type": "address"
        }
      ],
      "name": "ManufacturerRemoved",
      "type": "event"
    },
    {
      "constant": true,
      "inputs": [
        {
          "name": "account",
          "type": "address"
        }
      ],
      "name": "isManufacturer",
      "outputs": [
        {
          "name": "",
          "type": "bool"
        }
      ],
      "payable": false,
      "stateMutability": "view",
      "type": "function"
    },
    {
      "constant": false,
      "inputs": [
        {
          "name": "account",
          "type": "address"
        }
      ],
      "name": "addManufacturer",
      "outputs": [],
      "payable": false,
      "stateMutability": "nonpayable",
      "type": "function"
    },
    {
      "constant": false,
      "inputs": [],
      "name": "renounceManufacturer",
      "outputs": [],
      "payable": false,
      "stateMutability": "nonpayable",
      "type": "function"
    }
  ],
  "bytecode": "0x608060405234801561001057600080fd5b506100293361002e640100000000026401000000009004565b610208565b61004f8160006100b56401000000000261034a179091906401000000009004565b7f561138658ca49a8540dc70dcfe64c9026c1c5b9344642242dd6562970f9c127881604051808273ffffffffffffffffffffffffffffffffffffffff1673ffffffffffffffffffffffffffffffffffffffff16815260200191505060405180910390a150565b600073ffffffffffffffffffffffffffffffffffffffff168173ffffffffffffffffffffffffffffffffffffffff16141515156100f157600080fd5b61010a8282610174640100000000026401000000009004565b15151561011657600080fd5b60018260000160008373ffffffffffffffffffffffffffffffffffffffff1673ffffffffffffffffffffffffffffffffffffffff16815260200190815260200160002060006101000a81548160ff0219169083151502179055505050565b60008073ffffffffffffffffffffffffffffffffffffffff168273ffffffffffffffffffffffffffffffffffffffff16141515156101b157600080fd5b8260000160008373ffffffffffffffffffffffffffffffffffffffff1673ffffffffffffffffffffffffffffffffffffffff16815260200190815260200160002060009054906101000a900460ff16905092915050565b6104d5806102176000396000f300608060405260043610610057576000357c0100000000000000000000000000000000000000000000000000000000900463ffffffff16806317d4a4911461005c5780635f8a5afa146100b7578063de07f34e146100fa575b600080fd5b34801561006857600080fd5b5061009d600480360381019080803573ffffffffffffffffffffffffffffffffffffffff169060200190929190505050610111565b604051808215151515815260200191505060405180910390f35b3480156100c357600080fd5b506100f8600480360381019080803573ffffffffffffffffffffffffffffffffffffffff16906020019092919050505061012e565b005b34801561010657600080fd5b5061010f6101b7565b005b60006101278260006101c290919063ffffffff16565b9050919050565b61013733610111565b15156101ab576040517f08c379a000000000000000000000000000000000000000000000000000000000815260040180806020018281038252601f8152602001807f4d73672e73656e646572206d757374206265204d616e7566616374757265720081525060200191505060405180910390fd5b6101b481610256565b50565b6101c0336102d0565b565b60008073ffffffffffffffffffffffffffffffffffffffff168273ffffffffffffffffffffffffffffffffffffffff16141515156101ff57600080fd5b8260000160008373ffffffffffffffffffffffffffffffffffffffff1673ffffffffffffffffffffffffffffffffffffffff16815260200190815260200160002060009054906101000a900460ff16905092915050565b61026a81600061034a90919063ffffffff16565b7f561138658ca49a8540dc70dcfe64c9026c1c5b9344642242dd6562970f9c127881604051808273ffffffffffffffffffffffffffffffffffffffff1673ffffffffffffffffffffffffffffffffffffffff16815260200191505060405180910390a150565b6102e48160006103fa90919063ffffffff16565b7f2fed5abf6a80d6dfe30b4895481b2fc5d7dce5f8f7b931832f4a2947d5040c7f81604051808273ffffffffffffffffffffffffffffffffffffffff1673ffffffffffffffffffffffffffffffffffffffff16815260200191505060405180910390a150565b600073ffffffffffffffffffffffffffffffffffffffff168173ffffffffffffffffffffffffffffffffffffffff161415151561038657600080fd5b61039082826101c2565b15151561039c57600080fd5b60018260000160008373ffffffffffffffffffffffffffffffffffffffff1673ffffffffffffffffffffffffffffffffffffffff16815260200190815260200160002060006101000a81548160ff0219169083151502179055505050565b600073ffffffffffffffffffffffffffffffffffffffff168173ffffffffffffffffffffffffffffffffffffffff161415151561043657600080fd5b61044082826101c2565b151561044b57600080fd5b60008260000160008373ffffffffffffffffffffffffffffffffffffffff1673ffffffffffffffffffffffffffffffffffffffff16815260200190815260200160002060006101000a81548160ff02191690831515021790555050505600a165627a7a723058205e935eedce08511f43d74b747c578054fbb2a957e5c2ef839ac56d52ba6c77950029",
  "source": "pragma solidity >=0.4.21 <0.6.0;\r\n\r\n// Import the library 'Roles'\r\nimport \"./Roles.sol\";\r\n\r\n// Define a contract 'ManufacturerRole' to manage this role - add, remove, checks\r\n\r\ncontract ManufacturerRole {\r\n  using Roles for Roles.Role;\r\n\r\n  // Define 2 events, one for Adding, and other for Removing\r\n  event ManufacturerAdded(address manufacturer);\r\n  event ManufacturerRemoved(address manufacturer);\r\n\r\n  // Define a struct 'manufacturers' by inherting from 'Roles' library, struct Role\r\n  Roles.Role private manufacturers;\r\n\r\n  // In the constructor make the address that deploys this contract the 1st manufacturer\r\n  constructor() public {\r\n    _addManufacturer(msg.sender);\r\n  }\r\n\r\n  // Define a modifier that checks to see if msg.sender has the appropriate Role\r\n  modifier onlyManufacturer() {\r\n    require(isManufacturer(msg.sender),'Msg.sender must be Manufacturer');\r\n    _;\r\n  }\r\n\r\n  //Define a function 'isManufacturer' to check this Role\r\n  function isManufacturer(address account) public view returns(bool) {\r\n    return manufacturers.has(account);\r\n  }\r\n\r\n  //Define a function 'addManufacturer' that adds this role\r\n  function addManufacturer(address account) public onlyManufacturer {\r\n    _addManufacturer(account);\r\n  }\r\n\r\n  //Define a function 'renounceManufacturer' to renounce this Role\r\n  function renounceManufacturer() public {\r\n    _removeManufacturer(msg.sender);\r\n  }\r\n\r\n  //Define an internal function '_addManufacturer' to add this role, called by 'addManufacturer'\r\n  function _addManufacturer(address account) internal {\r\n    manufacturers.add(account);\r\n    emit ManufacturerAdded(account);\r\n  }\r\n\r\n  //Define an internal function '_removeManufacturer' to add this role, called by 'removeManufacturer'\r\n  function _removeManufacturer(address account) internal {\r\n    manufacturers.remove(account);\r\n    emit ManufacturerRemoved(account);\r\n  }\r\n}\r\n",
  "sourcePath": "c:\\bc_projects\\dapp-for-drug-supply-chain\\contracts\\accesscontrol\\ManufacturerRole.sol",
  "compiler": {
    "name": "solc",
    "version": "0.4.24+commit.e67f0147.Emscripten.clang"
  },
  "schemaVersion": "2.0.1",
  "updatedAt": "2019-06-22T19:54:41.710Z"
}