{
  "contractName": "PharmacistRole",
  "abi": [
    {
      "inputs": [],
      "payable": false,
      "stateMutability": "nonpayable",
      "type": "constructor"
    },
    {
      "anonymous": false,
      "inputs": [
        {
          "indexed": false,
          "name": "pharmacist",
          "type": "address"
        }
      ],
      "name": "PharmacistAdded",
      "type": "event"
    },
    {
      "anonymous": false,
      "inputs": [
        {
          "indexed": false,
          "name": "pharmacist",
          "type": "address"
        }
      ],
      "name": "PharmacistRemoved",
      "type": "event"
    },
    {
      "constant": true,
      "inputs": [
        {
          "name": "account",
          "type": "address"
        }
      ],
      "name": "isPharmacist",
      "outputs": [
        {
          "name": "",
          "type": "bool"
        }
      ],
      "payable": false,
      "stateMutability": "view",
      "type": "function"
    },
    {
      "constant": false,
      "inputs": [
        {
          "name": "account",
          "type": "address"
        }
      ],
      "name": "addPharmacist",
      "outputs": [],
      "payable": false,
      "stateMutability": "nonpayable",
      "type": "function"
    },
    {
      "constant": false,
      "inputs": [],
      "name": "renouncePharmacist",
      "outputs": [],
      "payable": false,
      "stateMutability": "nonpayable",
      "type": "function"
    }
  ],
  "bytecode": "0x608060405234801561001057600080fd5b506100293361002e640100000000026401000000009004565b610208565b61004f8160006100b5640100000000026103f8179091906401000000009004565b7f5a4264410853372bdd7255ebc9624cb523fc039cd6f9f1855165194738125f6381604051808273ffffffffffffffffffffffffffffffffffffffff1673ffffffffffffffffffffffffffffffffffffffff16815260200191505060405180910390a150565b600073ffffffffffffffffffffffffffffffffffffffff168173ffffffffffffffffffffffffffffffffffffffff16141515156100f157600080fd5b61010a8282610174640100000000026401000000009004565b15151561011657600080fd5b60018260000160008373ffffffffffffffffffffffffffffffffffffffff1673ffffffffffffffffffffffffffffffffffffffff16815260200190815260200160002060006101000a81548160ff0219169083151502179055505050565b60008073ffffffffffffffffffffffffffffffffffffffff168273ffffffffffffffffffffffffffffffffffffffff16141515156101b157600080fd5b8260000160008373ffffffffffffffffffffffffffffffffffffffff1673ffffffffffffffffffffffffffffffffffffffff16815260200190815260200160002060009054906101000a900460ff16905092915050565b6104d4806102176000396000f300608060405260043610610057576000357c0100000000000000000000000000000000000000000000000000000000900463ffffffff1680635ae632471461005c57806382946ee214610073578063c09e2693146100ce575b600080fd5b34801561006857600080fd5b50610071610111565b005b34801561007f57600080fd5b506100b4600480360381019080803573ffffffffffffffffffffffffffffffffffffffff16906020019092919050505061011c565b604051808215151515815260200191505060405180910390f35b3480156100da57600080fd5b5061010f600480360381019080803573ffffffffffffffffffffffffffffffffffffffff169060200190929190505050610138565b005b61011a336101c1565b565b600061013282600061023b90919063ffffffff16565b50919050565b6101413361011c565b15156101b5576040517f08c379a000000000000000000000000000000000000000000000000000000000815260040180806020018281038252601d8152602001807f4d73672e73656e646572206d75737420626520506861726d616369737400000081525060200191505060405180910390fd5b6101be816102cf565b50565b6101d581600061034990919063ffffffff16565b7f9d17ec7e57a5118cf27abf33370bcc6f007c27a9706ab4cc473a76fe552447d281604051808273ffffffffffffffffffffffffffffffffffffffff1673ffffffffffffffffffffffffffffffffffffffff16815260200191505060405180910390a150565b60008073ffffffffffffffffffffffffffffffffffffffff168273ffffffffffffffffffffffffffffffffffffffff161415151561027857600080fd5b8260000160008373ffffffffffffffffffffffffffffffffffffffff1673ffffffffffffffffffffffffffffffffffffffff16815260200190815260200160002060009054906101000a900460ff16905092915050565b6102e38160006103f890919063ffffffff16565b7f5a4264410853372bdd7255ebc9624cb523fc039cd6f9f1855165194738125f6381604051808273ffffffffffffffffffffffffffffffffffffffff1673ffffffffffffffffffffffffffffffffffffffff16815260200191505060405180910390a150565b600073ffffffffffffffffffffffffffffffffffffffff168173ffffffffffffffffffffffffffffffffffffffff161415151561038557600080fd5b61038f828261023b565b151561039a57600080fd5b60008260000160008373ffffffffffffffffffffffffffffffffffffffff1673ffffffffffffffffffffffffffffffffffffffff16815260200190815260200160002060006101000a81548160ff0219169083151502179055505050565b600073ffffffffffffffffffffffffffffffffffffffff168173ffffffffffffffffffffffffffffffffffffffff161415151561043457600080fd5b61043e828261023b565b15151561044a57600080fd5b60018260000160008373ffffffffffffffffffffffffffffffffffffffff1673ffffffffffffffffffffffffffffffffffffffff16815260200190815260200160002060006101000a81548160ff02191690831515021790555050505600a165627a7a7230582024c21e37d58db6de6a913c98f5c1f7ab79ea73a2c50924437058127b481d9db70029",
  "source": "pragma solidity >=0.4.21 <0.6.0;\r\n\r\n// Import the library 'Roles'\r\nimport \"./Roles.sol\";\r\n\r\n// Define a contract 'PharmacistRole' to manage this role - add, remove, check\r\n\r\ncontract PharmacistRole {\r\n\r\n  using Roles for Roles.Role;\r\n\r\n  // Define 2 events, one for Adding, and other for Removing\r\n\r\n  event PharmacistAdded(address pharmacist);\r\n  event PharmacistRemoved(address pharmacist);\r\n\r\n  // Define a struct 'pharmacists' by inheriting from 'Roles' library, struct Role\r\n  Roles.Role private pharmacists;\r\n\r\n  // In the constructor make the address that deploys this contract the 1st pharmacist\r\n\r\n  constructor() public {\r\n    _addPharmacist(msg.sender);\r\n\r\n  }\r\n\r\n  // Define a modifier that checks to see if msg.sender has the appropriate Role\r\n\r\n  modifier onlyPharmacist() {\r\n    require(isPharmacist(msg.sender),'Msg.sender must be Pharmacist');\r\n    _;\r\n  }\r\n\r\n  // Define a function 'isPharmacist' to check this Role\r\n  function isPharmacist(address account) public view returns (bool) {\r\n    pharmacists.has(account);\r\n  }\r\n\r\n  // Define a function 'addPharmacist' that adds this Role\r\n  function addPharmacist(address account) public onlyPharmacist {\r\n    _addPharmacist(account);\r\n  }\r\n\r\n  // Define a function 'renouncePharmacist' to renounce this Role\r\n  function renouncePharmacist() public {\r\n    _removePharmacist(msg.sender);\r\n\r\n  }\r\n\r\n  // Define an internal function '_addPharmacist' to add this role, called by 'addPharmacist'\r\n  function _addPharmacist(address account) internal {\r\n    pharmacists.add(account);\r\n    emit PharmacistAdded(account);\r\n\r\n  }\r\n\r\n  // Define an internal function '_removeConsumer' to remove this role, called by 'reomvePharmacist'\r\n  function _removePharmacist(address account) internal {\r\n    pharmacists.remove(account);\r\n    emit PharmacistRemoved(account);\r\n  }\r\n}\r\n",
  "sourcePath": "C:\\bc_projects\\dapp-for-drug-supply-chain\\contracts\\accesscontrol\\PharmacistRole.sol",
  "compiler": {
    "name": "solc",
    "version": "0.4.24+commit.e67f0147.Emscripten.clang"
  },
  "schemaVersion": "2.0.1",
  "updatedAt": "2019-06-21T18:16:06.367Z"
}