{
  "contractName": "SupplyChain",
  "abi": [
    {
      "constant": true,
      "inputs": [
        {
          "name": "account",
          "type": "address"
        }
      ],
      "name": "isManufacturer",
      "outputs": [
        {
          "name": "",
          "type": "bool"
        }
      ],
      "payable": false,
      "stateMutability": "view",
      "type": "function"
    },
    {
      "constant": false,
      "inputs": [],
      "name": "renouncePharmacist",
      "outputs": [],
      "payable": false,
      "stateMutability": "nonpayable",
      "type": "function"
    },
    {
      "constant": false,
      "inputs": [
        {
          "name": "account",
          "type": "address"
        }
      ],
      "name": "addManufacturer",
      "outputs": [],
      "payable": false,
      "stateMutability": "nonpayable",
      "type": "function"
    },
    {
      "constant": false,
      "inputs": [],
      "name": "renounceDistributor",
      "outputs": [],
      "payable": false,
      "stateMutability": "nonpayable",
      "type": "function"
    },
    {
      "constant": false,
      "inputs": [],
      "name": "renounceOwnership",
      "outputs": [],
      "payable": false,
      "stateMutability": "nonpayable",
      "type": "function"
    },
    {
      "constant": false,
      "inputs": [
        {
          "name": "account",
          "type": "address"
        }
      ],
      "name": "addDistributor",
      "outputs": [],
      "payable": false,
      "stateMutability": "nonpayable",
      "type": "function"
    },
    {
      "constant": true,
      "inputs": [
        {
          "name": "account",
          "type": "address"
        }
      ],
      "name": "isPharmacist",
      "outputs": [
        {
          "name": "",
          "type": "bool"
        }
      ],
      "payable": false,
      "stateMutability": "view",
      "type": "function"
    },
    {
      "constant": true,
      "inputs": [],
      "name": "owner",
      "outputs": [
        {
          "name": "",
          "type": "address"
        }
      ],
      "payable": false,
      "stateMutability": "view",
      "type": "function"
    },
    {
      "constant": true,
      "inputs": [
        {
          "name": "account",
          "type": "address"
        }
      ],
      "name": "isDistributor",
      "outputs": [
        {
          "name": "",
          "type": "bool"
        }
      ],
      "payable": false,
      "stateMutability": "view",
      "type": "function"
    },
    {
      "constant": true,
      "inputs": [],
      "name": "isOwner",
      "outputs": [
        {
          "name": "",
          "type": "bool"
        }
      ],
      "payable": false,
      "stateMutability": "view",
      "type": "function"
    },
    {
      "constant": false,
      "inputs": [
        {
          "name": "account",
          "type": "address"
        }
      ],
      "name": "addPharmacist",
      "outputs": [],
      "payable": false,
      "stateMutability": "nonpayable",
      "type": "function"
    },
    {
      "constant": false,
      "inputs": [],
      "name": "renounceManufacturer",
      "outputs": [],
      "payable": false,
      "stateMutability": "nonpayable",
      "type": "function"
    },
    {
      "constant": false,
      "inputs": [
        {
          "name": "newOwner",
          "type": "address"
        }
      ],
      "name": "transferOwnership",
      "outputs": [],
      "payable": false,
      "stateMutability": "nonpayable",
      "type": "function"
    },
    {
      "inputs": [],
      "payable": true,
      "stateMutability": "payable",
      "type": "constructor"
    },
    {
      "anonymous": false,
      "inputs": [
        {
          "indexed": false,
          "name": "ndc",
          "type": "string"
        }
      ],
      "name": "Ordered",
      "type": "event"
    },
    {
      "anonymous": false,
      "inputs": [
        {
          "indexed": false,
          "name": "ndc",
          "type": "string"
        }
      ],
      "name": "Manufactured",
      "type": "event"
    },
    {
      "anonymous": false,
      "inputs": [
        {
          "indexed": false,
          "name": "ndc",
          "type": "string"
        }
      ],
      "name": "MfrDispatched",
      "type": "event"
    },
    {
      "anonymous": false,
      "inputs": [
        {
          "indexed": false,
          "name": "ndc",
          "type": "string"
        }
      ],
      "name": "DistrReceived",
      "type": "event"
    },
    {
      "anonymous": false,
      "inputs": [
        {
          "indexed": false,
          "name": "ndc",
          "type": "string"
        }
      ],
      "name": "DistrDispatched",
      "type": "event"
    },
    {
      "anonymous": false,
      "inputs": [
        {
          "indexed": false,
          "name": "ndc",
          "type": "string"
        }
      ],
      "name": "PharReceived",
      "type": "event"
    },
    {
      "anonymous": false,
      "inputs": [
        {
          "indexed": false,
          "name": "ndc",
          "type": "string"
        }
      ],
      "name": "Dispensed",
      "type": "event"
    },
    {
      "anonymous": false,
      "inputs": [
        {
          "indexed": false,
          "name": "pharmacist",
          "type": "address"
        }
      ],
      "name": "PharmacistAdded",
      "type": "event"
    },
    {
      "anonymous": false,
      "inputs": [
        {
          "indexed": false,
          "name": "pharmacist",
          "type": "address"
        }
      ],
      "name": "PharmacistRemoved",
      "type": "event"
    },
    {
      "anonymous": false,
      "inputs": [
        {
          "indexed": false,
          "name": "distributor",
          "type": "address"
        }
      ],
      "name": "DistributorAdded",
      "type": "event"
    },
    {
      "anonymous": false,
      "inputs": [
        {
          "indexed": false,
          "name": "distributor",
          "type": "address"
        }
      ],
      "name": "DistributorRemoved",
      "type": "event"
    },
    {
      "anonymous": false,
      "inputs": [
        {
          "indexed": false,
          "name": "manufacturer",
          "type": "address"
        }
      ],
      "name": "ManufacturerAdded",
      "type": "event"
    },
    {
      "anonymous": false,
      "inputs": [
        {
          "indexed": false,
          "name": "manufacturer",
          "type": "address"
        }
      ],
      "name": "ManufacturerRemoved",
      "type": "event"
    },
    {
      "anonymous": false,
      "inputs": [
        {
          "indexed": true,
          "name": "oldOwner",
          "type": "address"
        },
        {
          "indexed": true,
          "name": "newOwner",
          "type": "address"
        }
      ],
      "name": "TransferOwnership",
      "type": "event"
    },
    {
      "constant": false,
      "inputs": [],
      "name": "kill",
      "outputs": [],
      "payable": false,
      "stateMutability": "nonpayable",
      "type": "function"
    },
    {
      "constant": false,
      "inputs": [
        {
          "name": "_ndc",
          "type": "string"
        },
        {
          "name": "_manufacturerID",
          "type": "address"
        },
        {
          "name": "_productID",
          "type": "string"
        },
        {
          "name": "_productDescription",
          "type": "string"
        },
        {
          "name": "_productFormName",
          "type": "string"
        },
        {
          "name": "_productLabelerName",
          "type": "string"
        }
      ],
      "name": "manufactureItem",
      "outputs": [],
      "payable": false,
      "stateMutability": "nonpayable",
      "type": "function"
    },
    {
      "constant": false,
      "inputs": [
        {
          "name": "_ndc",
          "type": "string"
        }
      ],
      "name": "dispatchItemToDistr",
      "outputs": [],
      "payable": false,
      "stateMutability": "nonpayable",
      "type": "function"
    },
    {
      "constant": false,
      "inputs": [
        {
          "name": "_ndc",
          "type": "string"
        }
      ],
      "name": "distrReceiveItem",
      "outputs": [],
      "payable": false,
      "stateMutability": "nonpayable",
      "type": "function"
    },
    {
      "constant": false,
      "inputs": [
        {
          "name": "_ndc",
          "type": "string"
        }
      ],
      "name": "dispatchItemToPharmacist",
      "outputs": [],
      "payable": false,
      "stateMutability": "nonpayable",
      "type": "function"
    },
    {
      "constant": false,
      "inputs": [
        {
          "name": "_ndc",
          "type": "string"
        }
      ],
      "name": "pharReceiveItem",
      "outputs": [],
      "payable": false,
      "stateMutability": "nonpayable",
      "type": "function"
    },
    {
      "constant": false,
      "inputs": [
        {
          "name": "_ndc",
          "type": "string"
        }
      ],
      "name": "dispenseToConsumer",
      "outputs": [],
      "payable": false,
      "stateMutability": "nonpayable",
      "type": "function"
    },
    {
      "constant": true,
      "inputs": [
        {
          "name": "_ndc",
          "type": "string"
        }
      ],
      "name": "fetchItemBufferOne",
      "outputs": [
        {
          "name": "itemSKU",
          "type": "uint256"
        },
        {
          "name": "itemNDC",
          "type": "string"
        },
        {
          "name": "ownerID",
          "type": "address"
        },
        {
          "name": "manufacturerID",
          "type": "address"
        },
        {
          "name": "productID",
          "type": "string"
        },
        {
          "name": "productDescription",
          "type": "string"
        },
        {
          "name": "productFormName",
          "type": "string"
        },
        {
          "name": "productLabelerName",
          "type": "string"
        }
      ],
      "payable": false,
      "stateMutability": "view",
      "type": "function"
    },
    {
      "constant": true,
      "inputs": [
        {
          "name": "_ndc",
          "type": "string"
        }
      ],
      "name": "fetchItemBufferTwo",
      "outputs": [
        {
          "name": "itemSKU",
          "type": "uint256"
        },
        {
          "name": "itemNDC",
          "type": "string"
        },
        {
          "name": "itemState",
          "type": "uint8"
        },
        {
          "name": "distributorID",
          "type": "address"
        },
        {
          "name": "pharmacistID",
          "type": "address"
        }
      ],
      "payable": false,
      "stateMutability": "view",
      "type": "function"
    }
  ],
  "bytecode": "0x6080604052336000806101000a81548173ffffffffffffffffffffffffffffffffffffffff021916908373ffffffffffffffffffffffffffffffffffffffff1602179055506000809054906101000a900473ffffffffffffffffffffffffffffffffffffffff1673ffffffffffffffffffffffffffffffffffffffff16600073ffffffffffffffffffffffffffffffffffffffff167f5c486528ec3e3f0ea91181cff8116f02bfa350e03b8b6f12e00765adbb5af85c60405160405180910390a3620000da3362000114640100000000026401000000009004565b620000f4336200019e640100000000026401000000009004565b6200010e3362000228640100000000026401000000009004565b6200040a565b62000138816001620002b264010000000002620035e1179091906401000000009004565b7f561138658ca49a8540dc70dcfe64c9026c1c5b9344642242dd6562970f9c127881604051808273ffffffffffffffffffffffffffffffffffffffff1673ffffffffffffffffffffffffffffffffffffffff16815260200191505060405180910390a150565b620001c2816002620002b264010000000002620035e1179091906401000000009004565b7fddbf200aa634dc3fb81cfd68583dd1040d1c751d335e1d86b631bde3e977fea881604051808273ffffffffffffffffffffffffffffffffffffffff1673ffffffffffffffffffffffffffffffffffffffff16815260200191505060405180910390a150565b6200024c816003620002b264010000000002620035e1179091906401000000009004565b7f5a4264410853372bdd7255ebc9624cb523fc039cd6f9f1855165194738125f6381604051808273ffffffffffffffffffffffffffffffffffffffff1673ffffffffffffffffffffffffffffffffffffffff16815260200191505060405180910390a150565b600073ffffffffffffffffffffffffffffffffffffffff168173ffffffffffffffffffffffffffffffffffffffff1614151515620002ef57600080fd5b6200030a828262000375640100000000026401000000009004565b1515156200031757600080fd5b60018260000160008373ffffffffffffffffffffffffffffffffffffffff1673ffffffffffffffffffffffffffffffffffffffff16815260200190815260200160002060006101000a81548160ff0219169083151502179055505050565b60008073ffffffffffffffffffffffffffffffffffffffff168273ffffffffffffffffffffffffffffffffffffffff1614151515620003b357600080fd5b8260000160008373ffffffffffffffffffffffffffffffffffffffff1673ffffffffffffffffffffffffffffffffffffffff16815260200190815260200160002060009054906101000a900460ff16905092915050565b613762806200041a6000396000f300608060405260043610610128576000357c0100000000000000000000000000000000000000000000000000000000900463ffffffff168063037fd5831461012d57806315baa59a1461019657806317d4a491146101ff57806341c0e1b51461025a5780635ae63247146102715780635f8a5afa14610288578063644241db146102cb578063715018a6146102e25780637250e224146102f95780637e35159a1461033c57806382946ee2146104a05780638c8ad6e0146104fb5780638da5cb5b146105645780638f0c86fa146105bb5780638f32d59b14610616578063bd7b8d9914610645578063c09e2693146106ae578063ca18e5a9146106f1578063ce7a0952146109f0578063de07f34e14610b91578063f2fde38b14610ba8578063fa8dfd5214610beb575b600080fd5b34801561013957600080fd5b50610194600480360381019080803590602001908201803590602001908080601f0160208091040260200160405190810160405280939291908181526020018383808284378201915050505050509192919290505050610c54565b005b3480156101a257600080fd5b506101fd600480360381019080803590602001908201803590602001908080601f0160208091040260200160405190810160405280939291908181526020018383808284378201915050505050509192919290505050611090565b005b34801561020b57600080fd5b50610240600480360381019080803573ffffffffffffffffffffffffffffffffffffffff1690602001909291905050506114a7565b604051808215151515815260200191505060405180910390f35b34801561026657600080fd5b5061026f6114c4565b005b34801561027d57600080fd5b506102866114f7565b005b34801561029457600080fd5b506102c9600480360381019080803573ffffffffffffffffffffffffffffffffffffffff169060200190929190505050611502565b005b3480156102d757600080fd5b506102e061158b565b005b3480156102ee57600080fd5b506102f7611596565b005b34801561030557600080fd5b5061033a600480360381019080803573ffffffffffffffffffffffffffffffffffffffff169060200190929190505050611668565b005b34801561034857600080fd5b506103a3600480360381019080803590602001908201803590602001908080601f01602080910402602001604051908101604052809392919081815260200183838082843782019150505050505091929192905050506116f1565b60405180868152602001806020018560068111156103bd57fe5b60ff1681526020018473ffffffffffffffffffffffffffffffffffffffff1673ffffffffffffffffffffffffffffffffffffffff1681526020018373ffffffffffffffffffffffffffffffffffffffff1673ffffffffffffffffffffffffffffffffffffffff168152602001828103825286818151815260200191508051906020019080838360005b83811015610461578082015181840152602081019050610446565b50505050905090810190601f16801561048e5780820380516001836020036101000a031916815260200191505b50965050505050505060405180910390f35b3480156104ac57600080fd5b506104e1600480360381019080803573ffffffffffffffffffffffffffffffffffffffff169060200190929190505050611a2c565b604051808215151515815260200191505060405180910390f35b34801561050757600080fd5b50610562600480360381019080803590602001908201803590602001908080601f0160208091040260200160405190810160405280939291908181526020018383808284378201915050505050509192919290505050611a48565b005b34801561057057600080fd5b50610579611cff565b604051808273ffffffffffffffffffffffffffffffffffffffff1673ffffffffffffffffffffffffffffffffffffffff16815260200191505060405180910390f35b3480156105c757600080fd5b506105fc600480360381019080803573ffffffffffffffffffffffffffffffffffffffff169060200190929190505050611d28565b604051808215151515815260200191505060405180910390f35b34801561062257600080fd5b5061062b611d45565b604051808215151515815260200191505060405180910390f35b34801561065157600080fd5b506106ac600480360381019080803590602001908201803590602001908080601f0160208091040260200160405190810160405280939291908181526020018383808284378201915050505050509192919290505050611d9c565b005b3480156106ba57600080fd5b506106ef600480360381019080803573ffffffffffffffffffffffffffffffffffffffff169060200190929190505050612053565b005b3480156106fd57600080fd5b50610758600480360381019080803590602001908201803590602001908080601f01602080910402602001604051908101604052809392919081815260200183838082843782019150505050505091929192905050506120dc565b60405180898152602001806020018873ffffffffffffffffffffffffffffffffffffffff1673ffffffffffffffffffffffffffffffffffffffff1681526020018773ffffffffffffffffffffffffffffffffffffffff1673ffffffffffffffffffffffffffffffffffffffff1681526020018060200180602001806020018060200186810386528d818151815260200191508051906020019080838360005b838110156108125780820151818401526020810190506107f7565b50505050905090810190601f16801561083f5780820380516001836020036101000a031916815260200191505b5086810385528a818151815260200191508051906020019080838360005b8381101561087857808201518184015260208101905061085d565b50505050905090810190601f1680156108a55780820380516001836020036101000a031916815260200191505b50868103845289818151815260200191508051906020019080838360005b838110156108de5780820151818401526020810190506108c3565b50505050905090810190601f16801561090b5780820380516001836020036101000a031916815260200191505b50868103835288818151815260200191508051906020019080838360005b83811015610944578082015181840152602081019050610929565b50505050905090810190601f1680156109715780820380516001836020036101000a031916815260200191505b50868103825287818151815260200191508051906020019080838360005b838110156109aa57808201518184015260208101905061098f565b50505050905090810190601f1680156109d75780820380516001836020036101000a031916815260200191505b509d505050505050505050505050505060405180910390f35b3480156109fc57600080fd5b50610b8f600480360381019080803590602001908201803590602001908080601f0160208091040260200160405190810160405280939291908181526020018383808284378201915050505050509192919290803573ffffffffffffffffffffffffffffffffffffffff169060200190929190803590602001908201803590602001908080601f0160208091040260200160405190810160405280939291908181526020018383808284378201915050505050509192919290803590602001908201803590602001908080601f0160208091040260200160405190810160405280939291908181526020018383808284378201915050505050509192919290803590602001908201803590602001908080601f0160208091040260200160405190810160405280939291908181526020018383808284378201915050505050509192919290803590602001908201803590602001908080601f01602080910402602001604051908101604052809392919081815260200183838082843782019150505050505091929192905050506127cc565b005b348015610b9d57600080fd5b50610ba6612de7565b005b348015610bb457600080fd5b50610be9600480360381019080803573ffffffffffffffffffffffffffffffffffffffff169060200190929190505050612df2565b005b348015610bf757600080fd5b50610c52600480360381019080803590602001908201803590602001908080601f0160208091040260200160405190810160405280939291908181526020018383808284378201915050505050509192919290505050612e11565b005b6000610c5f33611a2c565b1515610cd3576040517f08c379a000000000000000000000000000000000000000000000000000000000815260040180806020018281038252601d8152602001807f4d73672e73656e646572206d75737420626520506861726d616369737400000081525060200191505060405180910390fd5b8160046006811115610ce157fe5b6005826040518082805190602001908083835b602083101515610d195780518252602082019150602081019050602083039250610cf4565b6001836020036101000a0380198251168184511680821785525050505050509050019150509081526020016040518091039020600a0160009054906101000a900460ff166006811115610d6857fe5b141515610e03576040517f08c379a00000000000000000000000000000000000000000000000000000000081526004018080602001828103825260228152602001807f4974656d206e6f74206469737061746368656420746f2044697374726962757481526020017f6f7200000000000000000000000000000000000000000000000000000000000081525060400191505060405180910390fd5b339150816005846040518082805190602001908083835b602083101515610e3f5780518252602082019150602081019050602083039250610e1a565b6001836020036101000a038019825116818451168082178552505050505050905001915050908152602001604051809103902060020160006101000a81548173ffffffffffffffffffffffffffffffffffffffff021916908373ffffffffffffffffffffffffffffffffffffffff160217905550816005846040518082805190602001908083835b602083101515610eec5780518252602082019150602081019050602083039250610ec7565b6001836020036101000a038019825116818451168082178552505050505050905001915050908152602001604051809103902060050160006101000a81548173ffffffffffffffffffffffffffffffffffffffff021916908373ffffffffffffffffffffffffffffffffffffffff160217905550600580846040518082805190602001908083835b602083101515610f995780518252602082019150602081019050602083039250610f74565b6001836020036101000a0380198251168184511680821785525050505050509050019150509081526020016040518091039020600a0160006101000a81548160ff02191690836006811115610fea57fe5b02179055507f89ef2ee05286991a00adbb85e73bb526c84c497bdda84f032d533852e396b699836040518080602001828103825283818151815260200191508051906020019080838360005b83811015611051578082015181840152602081019050611036565b50505050905090810190601f16801561107e5780820380516001836020036101000a031916815260200191505b509250505060405180910390a1505050565b600061109b33611d28565b151561110f576040517f08c379a000000000000000000000000000000000000000000000000000000000815260040180806020018281038252601f8152602001807f4d73672e73656e646572206973206e6f742061206469737472696275746f720081525060200191505060405180910390fd5b816002600681111561111d57fe5b6005826040518082805190602001908083835b6020831015156111555780518252602082019150602081019050602083039250611130565b6001836020036101000a0380198251168184511680821785525050505050509050019150509081526020016040518091039020600a0160009054906101000a900460ff1660068111156111a457fe5b141515611219576040517f08c379a00000000000000000000000000000000000000000000000000000000081526004018080602001828103825260128152602001807f4974656d20696e2050726f64756374696f6e000000000000000000000000000081525060200191505060405180910390fd5b339150816005846040518082805190602001908083835b6020831015156112555780518252602082019150602081019050602083039250611230565b6001836020036101000a038019825116818451168082178552505050505050905001915050908152602001604051809103902060020160006101000a81548173ffffffffffffffffffffffffffffffffffffffff021916908373ffffffffffffffffffffffffffffffffffffffff160217905550816005846040518082805190602001908083835b60208310151561130257805182526020820191506020810190506020830392506112dd565b6001836020036101000a038019825116818451168082178552505050505050905001915050908152602001604051809103902060040160006101000a81548173ffffffffffffffffffffffffffffffffffffffff021916908373ffffffffffffffffffffffffffffffffffffffff16021790555060036005846040518082805190602001908083835b6020831015156113b0578051825260208201915060208101905060208303925061138b565b6001836020036101000a0380198251168184511680821785525050505050509050019150509081526020016040518091039020600a0160006101000a81548160ff0219169083600681111561140157fe5b02179055507ffe5d89fa50f8422a1e20fd016012bff210226834552285f9d317db3954f01767836040518080602001828103825283818151815260200191508051906020019080838360005b8381101561146857808201518184015260208101905061144d565b50505050905090810190601f1680156114955780820380516001836020036101000a031916815260200191505b509250505060405180910390a1505050565b60006114bd8260016130c890919063ffffffff16565b9050919050565b6114cc611d45565b15156114d757600080fd5b6114df611cff565b73ffffffffffffffffffffffffffffffffffffffff16ff5b6115003361315c565b565b61150b336114a7565b151561157f576040517f08c379a000000000000000000000000000000000000000000000000000000000815260040180806020018281038252601f8152602001807f4d73672e73656e646572206d757374206265204d616e7566616374757265720081525060200191505060405180910390fd5b611588816131d6565b50565b61159433613250565b565b61159e611d45565b15156115a957600080fd5b600073ffffffffffffffffffffffffffffffffffffffff166000809054906101000a900473ffffffffffffffffffffffffffffffffffffffff1673ffffffffffffffffffffffffffffffffffffffff167f5c486528ec3e3f0ea91181cff8116f02bfa350e03b8b6f12e00765adbb5af85c60405160405180910390a360008060006101000a81548173ffffffffffffffffffffffffffffffffffffffff021916908373ffffffffffffffffffffffffffffffffffffffff160217905550565b61167133611d28565b15156116e5576040517f08c379a000000000000000000000000000000000000000000000000000000000815260040180806020018281038252601f8152602001807f4d73672e73656e646572206973206e6f742061206469737472696275746f720081525060200191505060405180910390fd5b6116ee816132ca565b50565b6000606060008060006005866040518082805190602001908083835b602083101515611732578051825260208201915060208101905060208303925061170d565b6001836020036101000a03801982511681845116808217855250505050505090500191505090815260200160405180910390206000015494506005866040518082805190602001908083835b6020831015156117a3578051825260208201915060208101905060208303925061177e565b6001836020036101000a03801982511681845116808217855250505050505090500191505090815260200160405180910390206001018054600181600116156101000203166002900480601f01602080910402602001604051908101604052809291908181526020018280546001816001161561010002031660029004801561186d5780601f106118425761010080835404028352916020019161186d565b820191906000526020600020905b81548152906001019060200180831161185057829003601f168201915b505050505093506005866040518082805190602001908083835b6020831015156118ac5780518252602082019150602081019050602083039250611887565b6001836020036101000a0380198251168184511680821785525050505050509050019150509081526020016040518091039020600a0160009054906101000a900460ff1692506005866040518082805190602001908083835b60208310151561192a5780518252602082019150602081019050602083039250611905565b6001836020036101000a038019825116818451168082178552505050505050905001915050908152602001604051809103902060040160009054906101000a900473ffffffffffffffffffffffffffffffffffffffff1691506005866040518082805190602001908083835b6020831015156119bb5780518252602082019150602081019050602083039250611996565b6001836020036101000a038019825116818451168082178552505050505050905001915050908152602001604051809103902060050160009054906101000a900473ffffffffffffffffffffffffffffffffffffffff16905084848484849450945094509450945091939590929450565b6000611a428260036130c890919063ffffffff16565b50919050565b611a51336114a7565b1515611ac5576040517f08c379a000000000000000000000000000000000000000000000000000000000815260040180806020018281038252601f8152602001807f4d73672e73656e646572206d757374206265204d616e7566616374757265720081525060200191505060405180910390fd5b8060016006811115611ad357fe5b6005826040518082805190602001908083835b602083101515611b0b5780518252602082019150602081019050602083039250611ae6565b6001836020036101000a0380198251168184511680821785525050505050509050019150509081526020016040518091039020600a0160009054906101000a900460ff166006811115611b5a57fe5b141515611bcf576040517f08c379a00000000000000000000000000000000000000000000000000000000081526004018080602001828103825260168152602001807f4974656d206e6f74206d616e756661637475726564210000000000000000000081525060200191505060405180910390fd5b60026005836040518082805190602001908083835b602083101515611c095780518252602082019150602081019050602083039250611be4565b6001836020036101000a0380198251168184511680821785525050505050509050019150509081526020016040518091039020600a0160006101000a81548160ff02191690836006811115611c5a57fe5b02179055507f364c544d26582b239e52b1cdca82fe41152e04160c6845d90f15d2b8e46d742f826040518080602001828103825283818151815260200191508051906020019080838360005b83811015611cc1578082015181840152602081019050611ca6565b50505050905090810190601f168015611cee5780820380516001836020036101000a031916815260200191505b509250505060405180910390a15050565b60008060009054906101000a900473ffffffffffffffffffffffffffffffffffffffff16905090565b6000611d3e8260026130c890919063ffffffff16565b9050919050565b60008060009054906101000a900473ffffffffffffffffffffffffffffffffffffffff1673ffffffffffffffffffffffffffffffffffffffff163373ffffffffffffffffffffffffffffffffffffffff1614905090565b611da533611a2c565b1515611e19576040517f08c379a000000000000000000000000000000000000000000000000000000000815260040180806020018281038252601d8152602001807f4d73672e73656e646572206d75737420626520506861726d616369737400000081525060200191505060405180910390fd5b8060056006811115611e2757fe5b6005826040518082805190602001908083835b602083101515611e5f5780518252602082019150602081019050602083039250611e3a565b6001836020036101000a0380198251168184511680821785525050505050509050019150509081526020016040518091039020600a0160009054906101000a900460ff166006811115611eae57fe5b141515611f23576040517f08c379a00000000000000000000000000000000000000000000000000000000081526004018080602001828103825260118152602001807f4974656d206e6f7420726563656976656400000000000000000000000000000081525060200191505060405180910390fd5b60066005836040518082805190602001908083835b602083101515611f5d5780518252602082019150602081019050602083039250611f38565b6001836020036101000a0380198251168184511680821785525050505050509050019150509081526020016040518091039020600a0160006101000a81548160ff02191690836006811115611fae57fe5b02179055507fadcb788ec28b220fb1473f5d89b9d13da1189d02a2b5327870e5f211ba2678f8826040518080602001828103825283818151815260200191508051906020019080838360005b83811015612015578082015181840152602081019050611ffa565b50505050905090810190601f1680156120425780820380516001836020036101000a031916815260200191505b509250505060405180910390a15050565b61205c33611a2c565b15156120d0576040517f08c379a000000000000000000000000000000000000000000000000000000000815260040180806020018281038252601d8152602001807f4d73672e73656e646572206d75737420626520506861726d616369737400000081525060200191505060405180910390fd5b6120d981613344565b50565b600060606000806060806060806005896040518082805190602001908083835b60208310151561212157805182526020820191506020810190506020830392506120fc565b6001836020036101000a03801982511681845116808217855250505050505090500191505090815260200160405180910390206000015497506005896040518082805190602001908083835b602083101515612192578051825260208201915060208101905060208303925061216d565b6001836020036101000a03801982511681845116808217855250505050505090500191505090815260200160405180910390206001018054600181600116156101000203166002900480601f01602080910402602001604051908101604052809291908181526020018280546001816001161561010002031660029004801561225c5780601f106122315761010080835404028352916020019161225c565b820191906000526020600020905b81548152906001019060200180831161223f57829003601f168201915b505050505096506005896040518082805190602001908083835b60208310151561229b5780518252602082019150602081019050602083039250612276565b6001836020036101000a038019825116818451168082178552505050505050905001915050908152602001604051809103902060020160009054906101000a900473ffffffffffffffffffffffffffffffffffffffff1695506005896040518082805190602001908083835b60208310151561232c5780518252602082019150602081019050602083039250612307565b6001836020036101000a038019825116818451168082178552505050505050905001915050908152602001604051809103902060030160009054906101000a900473ffffffffffffffffffffffffffffffffffffffff1694506005896040518082805190602001908083835b6020831015156123bd5780518252602082019150602081019050602083039250612398565b6001836020036101000a03801982511681845116808217855250505050505090500191505090815260200160405180910390206006018054600181600116156101000203166002900480601f0160208091040260200160405190810160405280929190818152602001828054600181600116156101000203166002900480156124875780601f1061245c57610100808354040283529160200191612487565b820191906000526020600020905b81548152906001019060200180831161246a57829003601f168201915b505050505093506005896040518082805190602001908083835b6020831015156124c657805182526020820191506020810190506020830392506124a1565b6001836020036101000a03801982511681845116808217855250505050505090500191505090815260200160405180910390206007018054600181600116156101000203166002900480601f0160208091040260200160405190810160405280929190818152602001828054600181600116156101000203166002900480156125905780601f1061256557610100808354040283529160200191612590565b820191906000526020600020905b81548152906001019060200180831161257357829003601f168201915b505050505092506005896040518082805190602001908083835b6020831015156125cf57805182526020820191506020810190506020830392506125aa565b6001836020036101000a03801982511681845116808217855250505050505090500191505090815260200160405180910390206008018054600181600116156101000203166002900480601f0160208091040260200160405190810160405280929190818152602001828054600181600116156101000203166002900480156126995780601f1061266e57610100808354040283529160200191612699565b820191906000526020600020905b81548152906001019060200180831161267c57829003601f168201915b505050505091506005896040518082805190602001908083835b6020831015156126d857805182526020820191506020810190506020830392506126b3565b6001836020036101000a03801982511681845116808217855250505050505090500191505090815260200160405180910390206009018054600181600116156101000203166002900480601f0160208091040260200160405190810160405280929190818152602001828054600181600116156101000203166002900480156127a25780601f10612777576101008083540402835291602001916127a2565b820191906000526020600020905b81548152906001019060200180831161278557829003601f168201915b50505050509050878787878787878797509750975097509750975097509750919395975091939597565b6127d5336114a7565b1515612849576040517f08c379a000000000000000000000000000000000000000000000000000000000815260040180806020018281038252601f8152602001807f4d73672e73656e646572206d757374206265204d616e7566616374757265720081525060200191505060405180910390fd5b846005876040518082805190602001908083835b602083101515612882578051825260208201915060208101905060208303925061285d565b6001836020036101000a038019825116818451168082178552505050505050905001915050908152602001604051809103902060030160006101000a81548173ffffffffffffffffffffffffffffffffffffffff021916908373ffffffffffffffffffffffffffffffffffffffff160217905550836005876040518082805190602001908083835b60208310151561292f578051825260208201915060208101905060208303925061290a565b6001836020036101000a03801982511681845116808217855250505050505090500191505090815260200160405180910390206006019080519060200190612978929190613691565b50826005876040518082805190602001908083835b6020831015156129b2578051825260208201915060208101905060208303925061298d565b6001836020036101000a038019825116818451168082178552505050505050905001915050908152602001604051809103902060070190805190602001906129fb929190613691565b50816005876040518082805190602001908083835b602083101515612a355780518252602082019150602081019050602083039250612a10565b6001836020036101000a03801982511681845116808217855250505050505090500191505090815260200160405180910390206008019080519060200190612a7e929190613691565b50806005876040518082805190602001908083835b602083101515612ab85780518252602082019150602081019050602083039250612a93565b6001836020036101000a03801982511681845116808217855250505050505090500191505090815260200160405180910390206009019080519060200190612b01929190613691565b50856005876040518082805190602001908083835b602083101515612b3b5780518252602082019150602081019050602083039250612b16565b6001836020036101000a03801982511681845116808217855250505050505090500191505090815260200160405180910390206001019080519060200190612b84929190613691565b506004546005876040518082805190602001908083835b602083101515612bc05780518252602082019150602081019050602083039250612b9b565b6001836020036101000a038019825116818451168082178552505050505050905001915050908152602001604051809103902060000181905550336005876040518082805190602001908083835b602083101515612c335780518252602082019150602081019050602083039250612c0e565b6001836020036101000a038019825116818451168082178552505050505050905001915050908152602001604051809103902060020160006101000a81548173ffffffffffffffffffffffffffffffffffffffff021916908373ffffffffffffffffffffffffffffffffffffffff16021790555060016005876040518082805190602001908083835b602083101515612ce15780518252602082019150602081019050602083039250612cbc565b6001836020036101000a0380198251168184511680821785525050505050509050019150509081526020016040518091039020600a0160006101000a81548160ff02191690836006811115612d3257fe5b02179055506001600454016004819055507f43c02f307f7657d58a6ca4d44d71b0c5c4d14fa13164129eb1d68386f476d38f866040518080602001828103825283818151815260200191508051906020019080838360005b83811015612da5578082015181840152602081019050612d8a565b50505050905090810190601f168015612dd25780820380516001836020036101000a031916815260200191505b509250505060405180910390a1505050505050565b612df0336133be565b565b612dfa611d45565b1515612e0557600080fd5b612e0e81613438565b50565b612e1a33611d28565b1515612e8e576040517f08c379a000000000000000000000000000000000000000000000000000000000815260040180806020018281038252601f8152602001807f4d73672e73656e646572206973206e6f742061206469737472696275746f720081525060200191505060405180910390fd5b8060036006811115612e9c57fe5b6005826040518082805190602001908083835b602083101515612ed45780518252602082019150602081019050602083039250612eaf565b6001836020036101000a0380198251168184511680821785525050505050509050019150509081526020016040518091039020600a0160009054906101000a900460ff166006811115612f2357fe5b141515612f98576040517f08c379a00000000000000000000000000000000000000000000000000000000081526004018080602001828103825260118152602001807f4974656d206e6f7420726563656976656400000000000000000000000000000081525060200191505060405180910390fd5b60046005836040518082805190602001908083835b602083101515612fd25780518252602082019150602081019050602083039250612fad565b6001836020036101000a0380198251168184511680821785525050505050509050019150509081526020016040518091039020600a0160006101000a81548160ff0219169083600681111561302357fe5b02179055507f9136d979e9dc454c4a9b8dae99bb8ba8c954fb0dd0516c513854fca2fafc0547826040518080602001828103825283818151815260200191508051906020019080838360005b8381101561308a57808201518184015260208101905061306f565b50505050905090810190601f1680156130b75780820380516001836020036101000a031916815260200191505b509250505060405180910390a15050565b60008073ffffffffffffffffffffffffffffffffffffffff168273ffffffffffffffffffffffffffffffffffffffff161415151561310557600080fd5b8260000160008373ffffffffffffffffffffffffffffffffffffffff1673ffffffffffffffffffffffffffffffffffffffff16815260200190815260200160002060009054906101000a900460ff16905092915050565b61317081600361353290919063ffffffff16565b7f9d17ec7e57a5118cf27abf33370bcc6f007c27a9706ab4cc473a76fe552447d281604051808273ffffffffffffffffffffffffffffffffffffffff1673ffffffffffffffffffffffffffffffffffffffff16815260200191505060405180910390a150565b6131ea8160016135e190919063ffffffff16565b7f561138658ca49a8540dc70dcfe64c9026c1c5b9344642242dd6562970f9c127881604051808273ffffffffffffffffffffffffffffffffffffffff1673ffffffffffffffffffffffffffffffffffffffff16815260200191505060405180910390a150565b61326481600261353290919063ffffffff16565b7f126174f6cf49c81cdb4a9214c6b8f037bef55b4ec31e4fc776cea2a1c8a88d5981604051808273ffffffffffffffffffffffffffffffffffffffff1673ffffffffffffffffffffffffffffffffffffffff16815260200191505060405180910390a150565b6132de8160026135e190919063ffffffff16565b7fddbf200aa634dc3fb81cfd68583dd1040d1c751d335e1d86b631bde3e977fea881604051808273ffffffffffffffffffffffffffffffffffffffff1673ffffffffffffffffffffffffffffffffffffffff16815260200191505060405180910390a150565b6133588160036135e190919063ffffffff16565b7f5a4264410853372bdd7255ebc9624cb523fc039cd6f9f1855165194738125f6381604051808273ffffffffffffffffffffffffffffffffffffffff1673ffffffffffffffffffffffffffffffffffffffff16815260200191505060405180910390a150565b6133d281600161353290919063ffffffff16565b7f2fed5abf6a80d6dfe30b4895481b2fc5d7dce5f8f7b931832f4a2947d5040c7f81604051808273ffffffffffffffffffffffffffffffffffffffff1673ffffffffffffffffffffffffffffffffffffffff16815260200191505060405180910390a150565b600073ffffffffffffffffffffffffffffffffffffffff168173ffffffffffffffffffffffffffffffffffffffff161415151561347457600080fd5b8073ffffffffffffffffffffffffffffffffffffffff166000809054906101000a900473ffffffffffffffffffffffffffffffffffffffff1673ffffffffffffffffffffffffffffffffffffffff167f5c486528ec3e3f0ea91181cff8116f02bfa350e03b8b6f12e00765adbb5af85c60405160405180910390a3806000806101000a81548173ffffffffffffffffffffffffffffffffffffffff021916908373ffffffffffffffffffffffffffffffffffffffff16021790555050565b600073ffffffffffffffffffffffffffffffffffffffff168173ffffffffffffffffffffffffffffffffffffffff161415151561356e57600080fd5b61357882826130c8565b151561358357600080fd5b60008260000160008373ffffffffffffffffffffffffffffffffffffffff1673ffffffffffffffffffffffffffffffffffffffff16815260200190815260200160002060006101000a81548160ff0219169083151502179055505050565b600073ffffffffffffffffffffffffffffffffffffffff168173ffffffffffffffffffffffffffffffffffffffff161415151561361d57600080fd5b61362782826130c8565b15151561363357600080fd5b60018260000160008373ffffffffffffffffffffffffffffffffffffffff1673ffffffffffffffffffffffffffffffffffffffff16815260200190815260200160002060006101000a81548160ff0219169083151502179055505050565b828054600181600116156101000203166002900490600052602060002090601f016020900481019282601f106136d257805160ff1916838001178555613700565b82800160010185558215613700579182015b828111156136ff5782518255916020019190600101906136e4565b5b50905061370d9190613711565b5090565b61373391905b8082111561372f576000816000905550600101613717565b5090565b905600a165627a7a723058205acda2724a2f05e5f2724a29bb1d5c9fe44e11088dd0900fb471906fd1380f770029",
  "source": "pragma solidity ^0.4.24;\n\nimport \"../accesscontrol/DistributorRole.sol\";\nimport \"../accesscontrol/ManufacturerRole.sol\";\nimport \"../accesscontrol/PharmacistRole.sol\";\nimport \"../core/Ownable.sol\";\n\n\n// Define a contract 'Supplychain'\ncontract SupplyChain is Ownable, ManufacturerRole, DistributorRole, PharmacistRole {\n\n// // Define a variable called 'ndc' for National Drug Code (NDC)\n// uint  ndc;\n\n// // Define a variable called 'sku' for Stock Keeping Unit (SKU)\nuint  sku;\n\n// Define a public mapping 'items' that maps the NDC to an Item.\nmapping (string => Item) items;\n\n// Define a public mapping 'itemsHistory' that maps the NDC to an array of TxHash,\n// that track its journey through the supply chain -- to be sent from DApp.\nmapping (uint => string[]) itemsHistory;\n\n// Define enum 'State' with the following values:\nenum State\n{\n\n  Ordered,  //0\n  Manufactured, //1\n  MfrDispatched, //2\n  DistrReceived, //3\n  DistrDispatched, //4\n  PharReceived, //5\n  Dispensed   //6\n  }\nState constant defaultState = State.Manufactured;\n\n// Define a struct 'Item' with the following fields:\nstruct Item {\n\n  uint    sku;  // Stock Keeping Unit (SKU)\n  string    ndc; //  National Drug Code (NDC) generated by the Manufacturer(10 digit), goes on the package, n be used for verification\n\n  address ownerID;  // Metamask-Ethereum address of the current owner as the product moves through stages\n  address manufacturerID;\n  address distributorID;  // Metamask-Ethereum address of the Distributor\n  address pharmacistID; // Metamask-Ethereum address of the Pharmacist\n\n  string  productID;  // Product ID\n  string  productDescription; // Product Description\n  string  productFormName; // Product Form like Tablet,Injection\n  string  productLabelerName; // Product Manufacturer Details\n  //uint    productPrice; // Product Price\n\n  State   itemState;  // Product State as represented in the enum above\n \n}\n // Define events with the same state values and accept 'ndc' as input argument\n\n event Ordered(string ndc);\n event Manufactured(string ndc);\n event MfrDispatched(string ndc);\n event DistrReceived(string ndc);\n event DistrDispatched(string ndc);\n event PharReceived(string ndc);\n event Dispensed(string ndc);\n\n  //Define a modifier that checks if an item.state of a ndc is Manufactured\n\n  modifier manufactured(string _ndc) {\n    require(items[_ndc].itemState == State.Manufactured,\"Item not manufactured!\");\n    _;\n  }\n\n  // Define a modifier that checks if an item.state of a ndc is Ordered\n  modifier ordered(string _ndc) {\n    require(items[_ndc].itemState == State.Ordered,\"Item not ordered\");\n    _;\n  }\n\n  // Define a modifier that checks if an item.state of a ndc is Received\n  modifier distReceived(string _ndc) {\n    require(items[_ndc].itemState == State.DistrReceived,\"Item not received\");\n    _;\n  }\n\n  // Define a modifier that checks if an item.state of a ndc is MfrDispatched\n  modifier mfrDispatch(string _ndc) {\n    require(items[_ndc].itemState == State.MfrDispatched,\"Item in Production\");\n    _;\n  }\n\n  modifier distDispatch(string _ndc) {\n    require(items[_ndc].itemState == State.DistrDispatched,\"Item not dispatched to Distributor\");\n    _;\n  }\n\n  modifier pharReceived(string _ndc) {\n    require(items[_ndc].itemState == State.PharReceived,\"Item not received\");\n    _;\n  }\n\n  // Define a modifier that checks if an item.state of a ndc is Dispensed\n  modifier dispenseItem(string _ndc) {\n    require(items[_ndc].itemState == State.Dispensed,\"Item not dispensed\");\n    _;\n  }\n\n\n  // In the constructor set 'owner' to the address that instantiated the contract\n  // and set 'sku' to 1\n  constructor() public payable {\n     \n  }\n\n  // Define a function 'kill' if required\n  function kill() public onlyOwner(){\n    \n      selfdestruct(owner());\n    \n  }\n\n//Define a function 'manufactureItem' that allows a Maufacturer to mark it as 'Manufactured'\n\nfunction manufactureItem(string _ndc,address _manufacturerID, \nstring memory _productID, string memory _productDescription, \nstring memory _productFormName, string memory _productLabelerName) public onlyManufacturer \n {\n  items[_ndc].manufacturerID = _manufacturerID;\n  items[_ndc].productID = _productID;\n  items[_ndc].productDescription = _productDescription;\n  items[_ndc].productFormName = _productFormName;\n  items[_ndc].productLabelerName = _productLabelerName;\n  //items[_ndc].productPrice = _productPrice;\n  items[_ndc].ndc = _ndc;\n  items[_ndc].sku = sku;\n  items[_ndc].ownerID = msg.sender;\n  items[_ndc].itemState = State.Manufactured;\n  sku = sku + 1;\n  emit Manufactured(_ndc);\n}\n\n//Define a function 'dispatchItem' that allows a Manufacturer to mark it as MfrDispatched\n\nfunction dispatchItemToDistr(string _ndc) public onlyManufacturer manufactured(_ndc){\n  items[_ndc].itemState = State.MfrDispatched;\n  emit MfrDispatched(_ndc);\n}\n\n//Define a function 'receiveItem' that allows a Distributor to mark it as Received\n\nfunction distrReceiveItem(string _ndc) public onlyDistributor mfrDispatch(_ndc) {\n  address receiver = msg.sender;\n  items[_ndc].ownerID = receiver;\n  items[_ndc].distributorID = receiver;\n  items[_ndc].itemState = State.DistrReceived;\n  emit DistrReceived(_ndc);\n}\n\nfunction dispatchItemToPharmacist(string _ndc) public onlyDistributor distReceived(_ndc) {\n  items[_ndc].itemState = State.DistrDispatched;\n  emit DistrDispatched(_ndc);\n}\n\nfunction pharReceiveItem(string _ndc) public onlyPharmacist\ndistDispatch(_ndc) {\n  address receiver = msg.sender;\n  items[_ndc].ownerID = receiver;\n  items[_ndc].pharmacistID = receiver;\n  items[_ndc].itemState = State.PharReceived;\n  emit PharReceived(_ndc);\n}\n\nfunction dispenseToConsumer(string _ndc) public onlyPharmacist\npharReceived(_ndc) {\n  items[_ndc].itemState = State.Dispensed;\n  emit Dispensed(_ndc);\n}\n\n// Define a function 'fetchItemBufferOne' that fetches the data\nfunction fetchItemBufferOne(string _ndc) public view returns\n(\nuint    itemSKU,\nstring    itemNDC,\naddress ownerID,\naddress manufacturerID,\nstring  memory productID,\nstring  memory productDescription,\nstring  memory productFormName,\nstring  memory productLabelerName\n)\n{\n// Assign values to the 8 parameters\nitemSKU = items[_ndc].sku;\nitemNDC = items[_ndc].ndc;\nownerID = items[_ndc].ownerID;\nmanufacturerID = items[_ndc].manufacturerID;\nproductID = items[_ndc].productID;\nproductDescription = items[_ndc].productDescription;\nproductFormName = items[_ndc].productFormName;\nproductLabelerName = items[_ndc].productLabelerName;\nreturn\n(\nitemSKU,\nitemNDC,\nownerID,\nmanufacturerID,\nproductID,\nproductDescription,\nproductFormName,\nproductLabelerName\n);\n}\n// Define a function 'fetchItemBufferTwo' that fetches the data\nfunction fetchItemBufferTwo(string _ndc) public view returns\n(\nuint    itemSKU,\nstring    itemNDC,\nState    itemState,\naddress distributorID,\naddress pharmacistID\n)\n{\n  // Assign values to the 9 parameters\n  itemSKU = items[_ndc].sku;\nitemNDC = items[_ndc].ndc;\nitemState = items[_ndc].itemState;\ndistributorID = items[_ndc].distributorID;\npharmacistID = items[_ndc].pharmacistID;\nreturn\n(\nitemSKU,\nitemNDC,\nitemState,\ndistributorID,\npharmacistID\n);\n}\n}",
  "sourcePath": "C:\\bc_projects\\dapp-for-drug-supply-chain\\contracts\\base\\SupplyChain.sol",
  "compiler": {
    "name": "solc",
    "version": "0.4.24+commit.e67f0147.Emscripten.clang"
  },
  "schemaVersion": "2.0.1",
  "updatedAt": "2019-06-21T18:16:06.380Z"
}